{
  "_format": "hh3-artifact-1",
  "contractName": "CrazyRushHeroes",
  "sourceName": "contracts/CrazyRushHeroes.sol",
  "abi": [
    {
      "inputs": [],
      "stateMutability": "nonpayable",
      "type": "constructor"
    },
    {
      "inputs": [
        {
          "internalType": "address",
          "name": "owner",
          "type": "address"
        }
      ],
      "name": "OwnableInvalidOwner",
      "type": "error"
    },
    {
      "inputs": [
        {
          "internalType": "address",
          "name": "account",
          "type": "address"
        }
      ],
      "name": "OwnableUnauthorizedAccount",
      "type": "error"
    },
    {
      "inputs": [],
      "name": "ReentrancyGuardReentrantCall",
      "type": "error"
    },
    {
      "inputs": [
        {
          "internalType": "address",
          "name": "token",
          "type": "address"
        }
      ],
      "name": "SafeERC20FailedOperation",
      "type": "error"
    },
    {
      "anonymous": false,
      "inputs": [
        {
          "indexed": true,
          "internalType": "address",
          "name": "buyer",
          "type": "address"
        },
        {
          "indexed": false,
          "internalType": "string",
          "name": "itemType",
          "type": "string"
        },
        {
          "indexed": false,
          "internalType": "uint256",
          "name": "amount",
          "type": "uint256"
        },
        {
          "indexed": false,
          "internalType": "string",
          "name": "paymentToken",
          "type": "string"
        },
        {
          "indexed": false,
          "internalType": "uint256",
          "name": "totalPrice",
          "type": "uint256"
        }
      ],
      "name": "ItemBought",
      "type": "event"
    },
    {
      "anonymous": false,
      "inputs": [
        {
          "indexed": false,
          "internalType": "string",
          "name": "itemType",
          "type": "string"
        },
        {
          "indexed": false,
          "internalType": "string",
          "name": "tokenName",
          "type": "string"
        },
        {
          "indexed": false,
          "internalType": "uint256",
          "name": "amount",
          "type": "uint256"
        },
        {
          "indexed": false,
          "internalType": "uint256",
          "name": "price",
          "type": "uint256"
        }
      ],
      "name": "ItemPriceUpdated",
      "type": "event"
    },
    {
      "anonymous": false,
      "inputs": [
        {
          "indexed": false,
          "internalType": "string",
          "name": "itemType",
          "type": "string"
        },
        {
          "indexed": false,
          "internalType": "uint256[]",
          "name": "amounts",
          "type": "uint256[]"
        },
        {
          "indexed": false,
          "internalType": "uint256[]",
          "name": "prices",
          "type": "uint256[]"
        }
      ],
      "name": "ItemTierPricesBatchUpdated",
      "type": "event"
    },
    {
      "anonymous": false,
      "inputs": [
        {
          "indexed": true,
          "internalType": "address",
          "name": "previousOwner",
          "type": "address"
        },
        {
          "indexed": true,
          "internalType": "address",
          "name": "newOwner",
          "type": "address"
        }
      ],
      "name": "OwnershipTransferred",
      "type": "event"
    },
    {
      "anonymous": false,
      "inputs": [
        {
          "indexed": false,
          "internalType": "string",
          "name": "tokenName",
          "type": "string"
        },
        {
          "indexed": false,
          "internalType": "address",
          "name": "tokenAddress",
          "type": "address"
        }
      ],
      "name": "TokenAdded",
      "type": "event"
    },
    {
      "anonymous": false,
      "inputs": [
        {
          "indexed": false,
          "internalType": "address",
          "name": "newTreasury",
          "type": "address"
        }
      ],
      "name": "TreasuryUpdated",
      "type": "event"
    },
    {
      "inputs": [
        {
          "internalType": "string",
          "name": "",
          "type": "string"
        }
      ],
      "name": "acceptedTokens",
      "outputs": [
        {
          "internalType": "contract IERC20",
          "name": "",
          "type": "address"
        }
      ],
      "stateMutability": "view",
      "type": "function"
    },
    {
      "inputs": [
        {
          "internalType": "string",
          "name": "tokenName",
          "type": "string"
        },
        {
          "internalType": "address",
          "name": "tokenAddress",
          "type": "address"
        }
      ],
      "name": "addAcceptedToken",
      "outputs": [],
      "stateMutability": "nonpayable",
      "type": "function"
    },
    {
      "inputs": [
        {
          "internalType": "string",
          "name": "itemType",
          "type": "string"
        },
        {
          "internalType": "string",
          "name": "tokenName",
          "type": "string"
        },
        {
          "internalType": "uint256[]",
          "name": "amounts",
          "type": "uint256[]"
        },
        {
          "internalType": "uint256[]",
          "name": "prices",
          "type": "uint256[]"
        }
      ],
      "name": "batchSetItemPrices",
      "outputs": [],
      "stateMutability": "nonpayable",
      "type": "function"
    },
    {
      "inputs": [
        {
          "internalType": "string",
          "name": "itemType",
          "type": "string"
        },
        {
          "internalType": "uint256",
          "name": "amount",
          "type": "uint256"
        },
        {
          "internalType": "string",
          "name": "paymentToken",
          "type": "string"
        }
      ],
      "name": "buyItem",
      "outputs": [],
      "stateMutability": "nonpayable",
      "type": "function"
    },
    {
      "inputs": [
        {
          "internalType": "bytes32",
          "name": "",
          "type": "bytes32"
        }
      ],
      "name": "itemPrices",
      "outputs": [
        {
          "internalType": "uint256",
          "name": "",
          "type": "uint256"
        }
      ],
      "stateMutability": "view",
      "type": "function"
    },
    {
      "inputs": [],
      "name": "owner",
      "outputs": [
        {
          "internalType": "address",
          "name": "",
          "type": "address"
        }
      ],
      "stateMutability": "view",
      "type": "function"
    },
    {
      "inputs": [],
      "name": "renounceOwnership",
      "outputs": [],
      "stateMutability": "nonpayable",
      "type": "function"
    },
    {
      "inputs": [
        {
          "internalType": "string",
          "name": "itemType",
          "type": "string"
        },
        {
          "internalType": "string",
          "name": "tokenName",
          "type": "string"
        },
        {
          "internalType": "uint256",
          "name": "amount",
          "type": "uint256"
        },
        {
          "internalType": "uint256",
          "name": "price",
          "type": "uint256"
        }
      ],
      "name": "setItemPrice",
      "outputs": [],
      "stateMutability": "nonpayable",
      "type": "function"
    },
    {
      "inputs": [
        {
          "internalType": "address",
          "name": "_treasuryAddress",
          "type": "address"
        }
      ],
      "name": "setTreasuryAddress",
      "outputs": [],
      "stateMutability": "nonpayable",
      "type": "function"
    },
    {
      "inputs": [
        {
          "internalType": "address",
          "name": "newOwner",
          "type": "address"
        }
      ],
      "name": "transferOwnership",
      "outputs": [],
      "stateMutability": "nonpayable",
      "type": "function"
    },
    {
      "inputs": [],
      "name": "treasuryAddress",
      "outputs": [
        {
          "internalType": "address",
          "name": "",
          "type": "address"
        }
      ],
      "stateMutability": "view",
      "type": "function"
    }
  ],
  "bytecode": "0x6080604052348015600e575f5ffd5b503380603357604051631e4fbdf760e01b81525f600482015260240160405180910390fd5b603a816055565b5060018055600280546001600160a01b0319163317905560a4565b5f80546001600160a01b038381166001600160a01b0319831681178455604051919092169283917f8be0079c531659141344cd1fd0a4f28419497f9722a3daafe3b4186f6b6457e09190a35050565b611092806100b15f395ff3fe608060405234801561000f575f5ffd5b50600436106100a6575f3560e01c8063a569320c1161006e578063a569320c14610130578063b4e81f5814610143578063c5f956af14610177578063e8407e9a1461018a578063f2fde38b1461019d578063fd3e6fb5146101b0575f5ffd5b80633b3b61fd146100aa5780636605bfda146100bf578063715018a6146100d25780637e0d37c3146100da5780638da5cb5b1461010c575b5f5ffd5b6100bd6100b8366004610b0e565b6101c3565b005b6100bd6100cd366004610b5d565b61029f565b6100bd610343565b6100f96100e8366004610b7d565b60046020525f908152604090205481565b6040519081526020015b60405180910390f35b5f546001600160a01b03165b6040516001600160a01b039091168152602001610103565b6100bd61013e366004610b94565b610356565b610118610151366004610c1f565b80516020818301810180516003825292820191909301209152546001600160a01b031681565b600254610118906001600160a01b031681565b6100bd610198366004610d0f565b610582565b6100bd6101ab366004610b5d565b610764565b6100bd6101be366004610dd9565b6107a1565b6101cb61093e565b6001600160a01b03811661021e5760405162461bcd60e51b8152602060048201526015602482015274496e76616c696420746f6b656e206164647265737360581b60448201526064015b60405180910390fd5b8060038484604051610231929190610e54565b90815260405190819003602001812080546001600160a01b03939093166001600160a01b0319909316929092179091557f6d97a31531bdb3c43d920bc996ec8b9fd7733f5f55a81cd74700f88631fc60329061029290859085908590610e8b565b60405180910390a1505050565b6102a761093e565b6001600160a01b0381166102ef5760405162461bcd60e51b815260206004820152600f60248201526e496e76616c6964206164647265737360881b6044820152606401610215565b600280546001600160a01b0319166001600160a01b0383169081179091556040519081527f7dae230f18360d76a040c81f050aa14eb9d6dc7901b20fc5d855e2a20fe814d19060200160405180910390a150565b61034b61093e565b6103545f61096a565b565b61035e6109b9565b5f83116103ad5760405162461bcd60e51b815260206004820181905260248201527f416d6f756e74206d7573742062652067726561746572207468616e207a65726f6044820152606401610215565b5f600383836040516103c0929190610e54565b908152604051908190036020019020546001600160a01b03169050806104205760405162461bcd60e51b815260206004820152601560248201527424b73b30b634b2103830bcb6b2b73a103a37b5b2b760591b6044820152606401610215565b5f868685858860405160200161043a959493929190610eb6565b60408051601f1981840301815291815281516020928301205f81815260049093529082205490925090819003610508575f888887876001604051602001610485959493929190610eef565b60408051601f1981840301815291815281516020928301205f8181526004909352912054909150806104f95760405162461bcd60e51b815260206004820152601960248201527f556e6974207072696365206e6f7420636f6e66696775726564000000000000006044820152606401610215565b6105038882610f2b565b925050505b600254610524906001600160a01b0385811691339116846109e3565b336001600160a01b03167f200c22849084b0b629fcb50a1eb289b84e8ad577b50c508f6aabd89ec4016f0589898989898760405161056796959493929190610f54565b60405180910390a250505061057b60018055565b5050505050565b61058a61093e565b8281146105ce5760405162461bcd60e51b81526020600482015260126024820152714d69736d617463686564206c656e6774687360701b6044820152606401610215565b826106105760405162461bcd60e51b8152602060048201526012602482015271125b9d985b1a59081d1a595c8818dbdd5b9d60721b6044820152606401610215565b5f5b83811015610718575f85858381811061062d5761062d610f94565b9050602002013511801561065857505f83838381811061064f5761064f610f94565b90506020020135115b6106995760405162461bcd60e51b8152602060048201526012602482015271496e76616c6964207469657220656e74727960701b6044820152606401610215565b5f898989898989878181106106b0576106b0610f94565b905060200201356040516020016106cb959493929190610eb6565b6040516020818303038152906040528051906020012090508383838181106106f5576106f5610f94565b5f9384526004602090815260409094209302919091013590915550600101610612565b507f2e9e2eaefadc99c0dd21e6f1e1c7bd71bb9f5766e5b42f44ba637a15fb6fbb6688888686868660405161075296959493929190610fd8565b60405180910390a15050505050505050565b61076c61093e565b6001600160a01b03811661079557604051631e4fbdf760e01b81525f6004820152602401610215565b61079e8161096a565b50565b6107a961093e565b846107ea5760405162461bcd60e51b8152602060048201526011602482015270496e76616c6964206974656d207479706560781b6044820152606401610215565b8261082c5760405162461bcd60e51b8152602060048201526012602482015271496e76616c696420746f6b656e206e616d6560701b6044820152606401610215565b5f82116108705760405162461bcd60e51b81526020600482015260126024820152710416d6f756e74206d757374206265203e20360741b6044820152606401610215565b5f81116108b35760405162461bcd60e51b815260206004820152601160248201527005072696365206d757374206265203e203607c1b6044820152606401610215565b5f86868686866040516020016108cd959493929190610eb6565b60408051601f1981840301815282825280516020918201205f818152600490925291902084905591507f7621a8036f7811e07fe59460a2fb5f4eb0ab459ff01420a3c7a9cea224ad73989061092d90899089908990899089908990611020565b60405180910390a150505050505050565b5f546001600160a01b031633146103545760405163118cdaa760e01b8152336004820152602401610215565b5f80546001600160a01b038381166001600160a01b0319831681178455604051919092169283917f8be0079c531659141344cd1fd0a4f28419497f9722a3daafe3b4186f6b6457e09190a35050565b6002600154036109dc57604051633ee5aeb560e01b815260040160405180910390fd5b6002600155565b604080516001600160a01b0385811660248301528416604482015260648082018490528251808303909101815260849091019091526020810180516001600160e01b03166323b872dd60e01b179052610a3d908590610a43565b50505050565b5f5f60205f8451602086015f885af180610a62576040513d5f823e3d81fd5b50505f513d91508115610a79578060011415610a86565b6001600160a01b0384163b155b15610a3d57604051635274afe760e01b81526001600160a01b0385166004820152602401610215565b5f5f83601f840112610abf575f5ffd5b5081356001600160401b03811115610ad5575f5ffd5b602083019150836020828501011115610aec575f5ffd5b9250929050565b80356001600160a01b0381168114610b09575f5ffd5b919050565b5f5f5f60408486031215610b20575f5ffd5b83356001600160401b03811115610b35575f5ffd5b610b4186828701610aaf565b9094509250610b54905060208501610af3565b90509250925092565b5f60208284031215610b6d575f5ffd5b610b7682610af3565b9392505050565b5f60208284031215610b8d575f5ffd5b5035919050565b5f5f5f5f5f60608688031215610ba8575f5ffd5b85356001600160401b03811115610bbd575f5ffd5b610bc988828901610aaf565b9096509450506020860135925060408601356001600160401b03811115610bee575f5ffd5b610bfa88828901610aaf565b969995985093965092949392505050565b634e487b7160e01b5f52604160045260245ffd5b5f60208284031215610c2f575f5ffd5b81356001600160401b03811115610c44575f5ffd5b8201601f81018413610c54575f5ffd5b80356001600160401b03811115610c6d57610c6d610c0b565b604051601f8201601f19908116603f011681016001600160401b0381118282101715610c9b57610c9b610c0b565b604052818152828201602001861015610cb2575f5ffd5b816020840160208301375f91810160200191909152949350505050565b5f5f83601f840112610cdf575f5ffd5b5081356001600160401b03811115610cf5575f5ffd5b6020830191508360208260051b8501011115610aec575f5ffd5b5f5f5f5f5f5f5f5f6080898b031215610d26575f5ffd5b88356001600160401b03811115610d3b575f5ffd5b610d478b828c01610aaf565b90995097505060208901356001600160401b03811115610d65575f5ffd5b610d718b828c01610aaf565b90975095505060408901356001600160401b03811115610d8f575f5ffd5b610d9b8b828c01610ccf565b90955093505060608901356001600160401b03811115610db9575f5ffd5b610dc58b828c01610ccf565b999c989b5096995094979396929594505050565b5f5f5f5f5f5f60808789031215610dee575f5ffd5b86356001600160401b03811115610e03575f5ffd5b610e0f89828a01610aaf565b90975095505060208701356001600160401b03811115610e2d575f5ffd5b610e3989828a01610aaf565b979a9699509760408101359660609091013595509350505050565b818382375f9101908152919050565b81835281816020850137505f828201602090810191909152601f909101601f19169091010190565b604081525f610e9e604083018587610e63565b905060018060a01b0383166020830152949350505050565b606081525f610ec9606083018789610e63565b8281036020840152610edc818688610e63565b9150508260408301529695505050505050565b606081525f610f02606083018789610e63565b8281036020840152610f15818688610e63565b91505060ff831660408301529695505050505050565b8082028115828204841417610f4e57634e487b7160e01b5f52601160045260245ffd5b92915050565b608081525f610f6760808301888a610e63565b8660208401528281036040840152610f80818688610e63565b915050826060830152979650505050505050565b634e487b7160e01b5f52603260045260245ffd5b8183525f6001600160fb1b03831115610fbf575f5ffd5b8260051b80836020870137939093016020019392505050565b606081525f610feb60608301888a610e63565b8281036020840152610ffe818789610fa8565b90508281036040840152611013818587610fa8565b9998505050505050505050565b608081525f61103360808301888a610e63565b8281036020840152611046818789610e63565b604084019590955250506060015294935050505056fea26469706673582212206c496a8fc083d6c584f140e09010b66226b891fd56fe2a3b438cb79b1573fb1f64736f6c634300081c0033",
  "linkReferences": {},
  "deployedLinkReferences": {},
  "immutableReferences": {},
  "inputSourceName": "project/contracts/CrazyRushHeroes.sol",
  "buildInfoId": "solc-0_8_28-58e2bedfb079106a58f0de2511c6b83d4b2805f5"
}